:020000041000EA
:1000000000B5324B212058609868022188439860DF
:10001000D860186158612E4B002199600221596106
:100020000121F02299502B49196001219960352056
:1000300000F044F80222904214D00621196600F024
:1000400034F8196E01211966002018661A6600F04E
:100050002CF8196E196E196E052000F02FF8012189
:100060000842F9D1002199601B49196000215960AB
:100070001A491B48016001219960EB211966A021F2
:10008000196600F012F800219960164914480160C1
:100090000121996001BC002800D000471248134993
:1000A000086003C880F30888084703B5996A0420EC
:1000B0000142FBD001200142F8D103BD02B5186610
:1000C0001866FFF7F2FF186E186E02BD00000240BE
:1000D000000000180000070000035F00212200005C
:1000E000F4000018222000A00001001008ED00E03C
:1000F00000000000000000000000000074B24E7A12
:1001000000000420E3010010C3010010E903001007
:10011000C1010010C1010010C1010010C101001097
:10012000C1010010C1010010C10100104503001001
:10013000C1010010C1010010C9030010D503001057
:10014000CD010010CD010010CD010010CD01001037
:10015000CD010010CD010010CD010010CD01001027
:10016000CD010010CD010010CD010010CD01001017
:10017000CD010010CD010010CD010010CD01001007
:10018000CD010010CD010010CD010010CD010010F7
:10019000CD010010CD010010CD010010CD010010E7
:1001A000CD010010CD010010CD010010CD010010D7
:1001B000CD010010CD010010CD010010CD010010C7
:1001C00000BE00BE00BE00BE00BE00BE00F03FF894
:1001D000103800BE00202049086006C881F3088856
:1001E00010471E48006800282DD10CA40ECC002911
:1001F00002D000F010F8F9E719491A4A002000E08F
:1002000001C19142FCD1184988471849884700BE6E
:10021000FDE701C901C29A42FBD37047BC8C0110B3
:10022000C0000020641000206C9C0110000004201D
:10023000000004206C9C0110001004200010042019
:100240000000000070470A480EF0D4F90047EFF3B1
:100250000580C0B27047000008ED00E0000000D04B
:10026000701000209CAB0020CD02001099C100103E
:1002700057560000F8B5C046F8BC08BC9E4670470B
:10028000F8B5C04610B5064C2378002B07D1054BB6
:10029000002B02D0044800E000BF0123237010BDF2
:1002A000C01500200000000084020010044B10B5AF
:1002B000002B03D00349044800E000BF10BDC04636
:1002C00000000000C415002084020010164B002B13
:1002D00000D1144B9D46402292029A1A9246002168
:1002E0008B460F461348144A121A10F081F90F4B2F
:1002F000002B00D098470E4B002B00D098470020D1
:10030000002104000D000D48002802D00C480BF01D
:1003100046FF0FF0EFFC2000290008F053F90BF026
:100320003BFFC04600000800000004200000000061
:1003300025850010701000209CAB00209FC100108C
:10034000000000007046C0082CD3EFF309808169DB
:1003500002390978002929D101B50FC8B8470CBC6A
:1003600003C29E461E4B06CB91421ED0083B1A602C
:10037000002909D0EFF3098020388863F0C0444693
:100380004D4656465F46F0C0906B1030F0C8A04610
:10039000A946B246BB4680F309882038F0C802203F
:1003A000C0430047EFF30880D1E770470D4A136858
:1003B0009942FAD801B5890053589C460FC8E047C6
:1003C0000CBC10609E46704701B507F071FB03BC82
:1003D0008E46C7E701B507F029FB03BC8E46C1E78F
:1003E0008004002014670110102304E0202302E0A1
:1003F000302300E040239C46F0B404AE7546E80884
:1004000001D3EFF309860E4F0FCE0FC70FBC0FC7F6
:100410004046494652465B460FC71DCE3100A60AEC
:1004200000D304316E0900D248311FC7EFF30980B1
:100430006946EFF3148663C7604601490BF048FA3A
:100440000CAB002001480421014B18478006002016
:1004500005E6001002B471464908490009564900F2
:100460008E4402BC7047C04602B471464908490038
:10047000095C49008E4402BC7047C0460022430814
:100480008B4274D303098B425FD3030A8B4244D35C
:10049000030B8B4228D3030C8B420DD3FF2209029E
:1004A00012BA030C8B4202D31212090265D0030B5D
:1004B0008B4219D300E0090AC30B8B4201D3CB0353
:1004C000C01A5241830B8B4201D38B03C01A524195
:1004D000430B8B4201D34B03C01A5241030B8B4297
:1004E00001D30B03C01A5241C30A8B4201D3CB0282
:1004F000C01A5241830A8B4201D38B02C01A524167
:10050000430A8B4201D34B02C01A5241030A8B4269
:1005100001D30B02C01A5241CDD2C3098B4201D381
:10052000CB01C01A524183098B4201D38B01C01AFF
:10053000524143098B4201D34B01C01A5241030976
:100540008B4201D30B01C01A5241C3088B4201D325
:10055000CB00C01A524183088B4201D38B00C01AD2
:10056000524143088B4201D34B00C01A5241411AF9
:1005700000D20146524110467047FFE701B5002006
:1005800000F0F0F802BDC0460029F7D076E77047CA
:1005900003460B437FD4002243088B4274D30309E4
:1005A0008B425FD3030A8B4244D3030B8B4228D385
:1005B000030C8B420DD3FF22090212BA030C8B42AB
:1005C00002D31212090265D0030B8B4219D300E04B
:1005D000090AC30B8B4201D3CB03C01A5241830BD0
:1005E0008B4201D38B03C01A5241430B8B4201D380
:1005F0004B03C01A5241030B8B4201D30B03C01AA9
:100600005241C30A8B4201D3CB02C01A5241830A22
:100610008B4201D38B02C01A5241430A8B4201D351
:100620004B02C01A5241030A8B4201D30B02C01A7B
:100630005241CDD2C3098B4201D3CB01C01A5241E2
:1006400083098B4201D38B01C01A524143098B426B
:1006500001D34B01C01A524103098B4201D30B0154
:10066000C01A5241C3088B4201D3CB00C01A524179
:1006700083088B4201D38B00C01A524143088B423E
:1006800001D34B00C01A5241411A00D201465241D7
:10069000104670475DE0CA0F00D04942031000D3F6
:1006A0004042534000229C4603098B422DD3030A4B
:1006B0008B4212D3FC22890112BA030A8B420CD35B
:1006C000890192118B4208D3890192118B4204D384
:1006D00089013AD0921100E08909C3098B4201D304
:1006E000CB01C01A524183098B4201D38B01C01A3E
:1006F000524143098B4201D34B01C01A52410309B5
:100700008B4201D30B01C01A5241C3088B4201D363
:10071000CB00C01A524183088B4201D38B00C01A10
:100720005241D9D243088B4201D34B00C01A5241E7
:10073000411A00D20146634652415B10104601D374
:100740004042002B00D54942704763465B1000D3FE
:10075000404201B5002000F005F802BD0029F8D0A4
:1007600016E770477047C046D0400B1CD1409C46EE
:10077000203AD3401843524263469340184370478F
:100780009140031C90409C46203A934019435242AA
:100790006346D340194370478446101C62468C461A
:1007A000191C634600E0C0461FB501F05BF8002845
:1007B00001D40021C8421FBD10B500F0B3FF404274
:1007C000013010BD10B501F04DF8002801DB00200C
:1007D00010BD012010BDC04610B501F043F800283F
:1007E00001DD002010BD012010BDC04610B500F095
:1007F000D5FF002801DC002010BD012010BDC0463F
:1008000010B500F0CBFF002801DA002010BD012058
:1008100010BDC0461C2101231B04984201D3000CCB
:1008200010391B0A984201D3000A08391B09984263
:1008300001D30009043902A2105C40187047C04679
:100840000403020201010101000000000000000099
:10085000002B15D1002A13D1002906DB01DC00286A
:1008600006D00020C043410802E080210906002094
:1008700007B4024801A14018029003BDE9FEFFFF42
:1008800003B4684601B5029800F012F9019B9E4638
:1008900002B00CBC7047C046002B11D1002A0FD10A
:1008A000002900D1002802D00021C943081C07B448
:1008B000024802A14018029003BDC046A9FEFFFFF6
:1008C00003B4684601B5029800F030F8019B9E46DB
:1008D00002B00CBC7047C046F0B5CE464746150482
:1008E0002D0C2E0080B50704140C3F0C9946030C08
:1008F0007E435D43674363437F19340CE4199C4690
:10090000A54203D980235B029846C4444B46434327
:100910005143250C36046544360C2404A4195B1994
:10092000591820000CBC90469946F0BDF0B54F46D2
:100930004646D646C0B5040082B00D0091469846A2
:100940008B422FD82CD04146484601F06BFE29003F
:100950000600200001F066FE331A9C46203B9A46B2
:1009600000D576E04B46524693401F004B46624608
:1009700093401E00AF4228D825D05346A41BBD414A
:10098000002B00DA7BE00022002300920193012378
:10099000524693400193012362469340009318E02E
:1009A0008242D0D900220023009201930A9B002B9F
:1009B00001D01C605D600098019902B01CBC90469B
:1009C0009946A246F0BDA342D7D900220023009247
:1009D00001936346002BE9D0FB0798464146720815
:1009E0000A437B0866460EE0AB4201D1A2420CD816
:1009F000A41A9D41012024196D410021013E2418B3
:100A00004D41002E06D0AB42EED9013E24196D4176
:100A1000002EF8D100980199534600196941002B26
:100A200023DB2B005246D3402A006446E2401C00E0
:100A300053461500002B2DDB26005746BE403300E1
:100A400026006746BE403200801A9941009001910D
:100A5000ACE7624620239B1A4A46DA4061461300FF
:100A600042468A4017001F4380E7624620239B1AB4
:100A70002A0066469A402300F3401343D4E76246B7
:100A8000202300219B1A0022009101920122DA40CA
:100A9000019280E72023624626009B1ADE402F0049
:100AA000B0466646B74046463B003343C8E7C046BB
:100AB000F0B583B016001F000090019101F0BEFD5B
:100AC00004000D0002000B0030003900FFF704FFA6
:100AD000009A019B121A8B41089920000A604B6012
:100AE000290003B0F0BDC046F0B54F464646D64695
:100AF0000C000903C0B5490A470F5E0039431F03C4
:100B0000DB0F9C4665007B0A570F1F436D0DE40FFA
:100B1000760DA146C000B846D200AB1B64457BD021
:100B2000002B5FDD002E00D0A4E03E00164300D174
:100B300012E15E1E002E00D09EE1871A4346B842A5
:100B400080410125C91A4042091A0B0200D431E143
:100B500049024E0A002E00D16EE13000FFF75AFE26
:100B60000300083B1F2B00DD61E120223900D21A6F
:100B70009E40D1409F400E439D4200DD51E15D1BF0
:100B80006B1C1F2B00DD7CE12021C91A3D003000C9
:100B90008F408840DD40791E8F4131000722284375
:100BA000D940002507433A40002A09D00F233B4093
:100BB000042B05D03B1DBB42BF417F42C9191F001A
:100BC0000B0200D426E26A1CC64B55056D0D9A42F5
:100BD00000D106E1C44AFF080A40530752023B43D2
:100BE000120B8EE0002B00D0B8E06B1C5B055B0D98
:100BF000012B00DC30E1871A4346B842B641CB1ADC
:100C000076429E1B330200D54CE13B003343A1D119
:100C100000220024002570E0002B00DCE5E0002E1F
:100C200000D183E0AF4EB54260D080263604374312
:100C3000B846382B00DC3EE1434613431F007A1EC2
:100C400097413F1887428041404209180B0200D467
:100C5000B0E0A44B01359D4200D1C3E0A24A7B081D
:100C60000A4001210F401F435108D30707221F43A9
:100C70003A4099E79B4EB54238D080263604374338
:100C8000B846382B00DDDCE01F2B00DC30E11E0015
:100C90004746203EF740BC46202B04D04026F31A9E
:100CA00046469E403243170063467A1E97411F43D3
:100CB000CCE0002B00D104E24346134300D159E1BC
:100CC0004B07C00818438023C9081B03194208D0EA
:100CD0004546ED081D4204D14346D0085907084354
:100CE0002900420FC9007F4D1143C0004B07CA08BD
:100CF0007C49C00803438D4268D012036D05120B76
:100D00006D0D002112031800130B0A0D12051A4372
:100D1000764B2D0513402B435B00E4075B08234310
:100D200019001CBC90469946A246F0BD3E001643F1
:100D300012D05E1E002E00D000E18718874280414D
:100D400041444042091801250B0233D5022585E7AD
:100D500064463300414610001D00C7E7002D00D057
:100D6000DAE00C000443F3D05C1C00D19FE15D4C41
:100D7000A64200D12FE1DB43382B00DD66E11F2BBB
:100D800000DD83E120240500E41A0F00DD40D94096
:100D9000A0404346A7405B1A441EA04198462F43FB
:100DA0003843171ABA42924143465242991A64464E
:100DB0003500CAE607223A40002A00D0F6E64B0783
:100DC000CA084849FF083B438D4296D11900114398
:100DD00000D19EE1802109030A431203120B414D09
:100DE0008FE71500002200238BE7002B00D0C7E01F
:100DF0006B1C5F057F0D012F00DCF1E0394DAB422C
:100E000000D1B9E085180A0085428941424449422F
:100E100051180722CF076D082F4349083A401D009B
:100E2000C2E607223049ED1A31403A40BCE63E00A6
:100E30002838864000279FE63800FFF7EBFC20307B
:100E40008EE6434613431F007A1E9741C71BB842E4
:100E500080414042091A78E60E003B0006431343E6
:100E6000002D61D1002E00D0F4E0002B00D11BE159
:100E700064463900100039E71A4FBB427AD033007C
:100E8000FFE630001F3DE840202B03D04021CB1A65
:100E90009E4037437B1E9F41072207433A40002173
:100EA000002589E7171A4346BA42B641591A7642D5
:100EB0008E1B64464EE61F2B00DDADE02026474624
:100EC000F61AB740B9461700B246DF404E463E43D9
:100ED00037005646B240561EB24117434246DA40EA
:100EE0008918AEE6FF070000FFFF7FFFFFFF0F80BE
:100EF00020264746F61AB740B9461700B246DF40EB
:100F00004E463E4337005646B240561EB241174346
:100F10004246DA40891A99E77F4CA6425BD080248A
:100F200024045B42214327E7002E0CD1002B00D183
:100F3000CBE0644639001000774DD7E6764FBB42D0
:100F400018D0330075E6002B14D04B07C0081843A7
:100F50008023C9081B03194207D0FC081C4204D196
:100F60007907D0080843E14621004C46420FC900EA
:100F70001143C000684DB9E61D0000220023C0E601
:100F8000002D5BD10D00054300D1E2E65D1C00D1D0
:100F9000B0E0614DAE421FD0DB43382B71DC1F2B1C
:100FA00000DD96E020250F00ED1AAF40B94607009E
:100FB000AA46DF404D463D432F005546A840D94044
:100FC000451EA84188440743BF18974292415142A9
:100FD000414435003AE6644635004146100085E656
:100FE0000B000343002D00D063E6002BF5D04346F1
:100FF000134300D17AE68718874280410722414493
:10100000404209183A400B0200D4D5E6434B013563
:101010001940C9E5380069E61E004746203EF74002
:10102000BC46202B04D04026F31A46469E4032434D
:10103000170063467A1E97411F4302E6364DAE42C3
:10104000CAD080252D045B422943A6E70843411EF0
:101050008841A6E6002B00D148E6871A4346B842ED
:10106000B641CB1A76429E1B33024BD5171A434624
:10107000BA429241591A5242891A072264463A40AA
:1010800092E501430F00791E8F419DE71C000F0080
:10109000203CE740202B03D04024E31A994008432A
:1010A000411E884138437CE60022002425E6171AB9
:1010B0004346BA429241591A5242891A644635004F
:1010C00043E541461000144D10E68022002412032F
:1010D00080E61D000F00203DEF40BC46202B03D0D2
:1010E0004025EB1A9940084307006346781E874164
:1010F0001F4369E7871897429B4141445B42C918E7
:101100003500A3E53B003343CED0072231003A40FF
:1011100052E600231A00F4E5FF070000FFFF7FFFFF
:10112000F0B55746DE464E464546E0B583460700D5
:101130000E03480085B092461C00360B400DCD0FC3
:10114000002800D19DE0954B984239D08023F600CD
:101150001B041E43924A7B0F334399469446030077
:101160006344009300230026FF00029323031B0B1C
:1011700098466300E40F52465B0D019400D1B3E042
:1011800086498B4200D19EE04246D1008022120463
:101190000A435146490F11438B46814952468C46BA
:1011A00000996344CB1A0021D20000932B006340C6
:1011B0009A460F2E00D905E17A4BB6009B599F46FF
:1011C0005B463343994600D0B8E002230826002747
:1011D00000900293CAE7CB463A0002990195019B21
:1011E0009A46022927D0032900D180E2012944D060
:1011F0006D49009B8C4663441C00002C38DD53076E
:1012000000D013E2D2085B46DB0109D55946674B93
:1012100019408B468021C9008C46009B63441C000A
:10122000634B9C4207DC5B4664055F075B02174328
:101230001B0B620D02E000230027584A00211B030C
:101240001C0B0B0D1B05234314055A4A3800134091
:101250001C4353466400DB0764081C43210005B0AF
:101260003CBC90469946A246AB46F0BD0122524294
:1012700001231B1B382B00DCADE1002200230027DB
:10128000DCE75B46334399465ED0002E00D18AE10D
:101290003000FFF7BFFA03000B3B1C2B00DD7BE1A6
:1012A0001D22D31A5A460100DA4008398E40130035
:1012B0005F46334399468F403F4B00261B1A0093ED
:1012C0000023029352E7414653460B433B499B465A
:1012D0008C46009B634400935B46002B3BD102236A
:1012E00000221E43022161E7434613439B4637D049
:1012F0004346002B00D162E14046FFF78BFA030022
:101300000B3B1C2B00DD53E102004146083A9140A3
:1013100088461D21CB1A5146D9400B0041460B434C
:101320009B46534693401A00009B25499C466044C7
:1013300003008C4663440093002137E70323B14642
:1013400000900C26029311E700230093013304263A
:10135000002702930AE70323C3461E43032125E720
:1013600001331E430022012120E700239A468023F7
:1013700000271B03094A61E7802349461B031942E2
:1013800000D1E2E05946194200D0DEE00B431B03D6
:1013900017001B0BA246014A50E7C046FF0700009A
:1013A00001FCFFFF24580110FF030000FFFFFFFEB8
:1013B000FE070000FFFF0F800DFCFFFF01F8FFFF9D
:1013C000F3030000D94500D9CBE000D1C6E03C00D2
:1013D00048460027009B013B00935B46160E1B020C
:1013E0001E431302984633041B0C9946310C01919D
:1013F000FFF7CAF84A4642430B04210C0500194383
:101400008A4207D98919013D8E4203D88A4201D9FF
:10141000851E8919881A0199FFF7B6F809048C46C8
:101420004A46210464464243090C030021438A4290
:1014300004D98919013B8E4200D8F1E02D041D43E7
:10144000AB464346891A4246280C12041D0C5B46E3
:10145000140C22001B041B0C5A4303946B4344439B
:10146000029568431B19150CEB189C4203D9802484
:101470006402A44660441C0C15041B042D0C2018A7
:101480005D19814277D373D00C1AA24A7D1BAF42FB
:10149000BF419446009B7F426344E01B1C00864290
:1014A00000D1DBE00199FFF76FF84A4642430B0495
:1014B000290C070019438A4207D98919013F8E4236
:1014C00003D88A4201D9871E8919881A0199FFF722
:1014D0005BF809044A46894629044D464243090CF3
:1014E000030029438A4207D98919013B8E4203D858
:1014F0008A4201D9831E89193F04891A3A00039F41
:101500001A43380013041B0C584381460298150CEB
:101510006F43434345434846000C8446DB1963440C
:101520009F4203D9802040028446654448461F0CF0
:1015300000041B04000C7D191818A94200D284E095
:1015400000D17FE001231A4357E680234A461B035C
:1015500013431B031B0BAA466F4A6FE6BA4200D91E
:1015600035E74B46DC0758087B081C43FF0734E788
:101570000024AF4289D247444745A4415B466442B8
:10158000A4196418013BA6421ED2A0426DD800D116
:10159000B6E0241A9B4678E703005A46283B9A4057
:1015A0000027914688E65846FFF734F9203072E666
:1015B00003005246283B9A4093460022B4E6504628
:1015C000FFF728F920309AE6A642E2D1B845DCD9E7
:1015D000341A9B4659E71F2B65DC504C0099A446F2
:1015E0005C46614408008C4011008240D940501E86
:1015F00082410C4314435A46DA401300620709D073
:101600000F222240042A05D02200141D9442894151
:1016100049425B181A0262D50122002300270DE619
:101620008A4200D80AE7831E891907E70F2313406F
:10163000042B00D1E6E5171D9742924153429B448B
:10164000FA08E0E5002800D1D7E57118531EB14231
:1016500027D3A94215D358D01A0073E7002B00DC1A
:1016600004E6012300229B44CDE50223474447457D
:1016700089415B429C46494289190C19E344241A6A
:1016800003E743465F0047459B41B8465B429E19CE
:10169000023A8919A94200D054E7404500D051E7E9
:1016A000ABE51A00F6E71F215F4649420C1BE740F5
:1016B000202B07D01A49009B8C46634418005B46D8
:1016C00083401A43501E82413A43072700231740A4
:1016D00009D00F21002311401400042995D12200C4
:1016E0005F075B021B0BD20817430022A6E580238D
:1016F00059461B030B431B0317001B0B064A9DE5B2
:10170000BD42B2D89B460024BFE68045B9D31A003B
:10171000C3E7C046FF030000FF0700001E040000EF
:101720003E040000F0B54F464646D6468446C0B556
:101730008046194E18030F034D00000B5C008246D3
:101740003F0B6D0DC90F9146640DDB0F0120B542B3
:101750000AD0B44203D0A54201D157450CD01CBCDD
:1017600090469946A246F0BD66463E43F7D1AC424C
:10177000F5D154461443F2D10120C845EFD1994226
:1017800007D0002DEBD163461F433800471EB841F8
:10179000E5E70020E3E7C046FF070000F0B54F464D
:1017A0004646D6464D00C0B50E03C90F8A462C49A1
:1017B0001F035C008046360B6D0D91463F0B640D98
:1017C000DB0F8D421ED08C4216D0002D1ED130432F
:1017D0008446002C01D13A4323D06246002A1AD015
:1017E0009A4529D0514602200139084001381CBCD5
:1017F00090469946A246F0BD39001143E5D002203B
:101800004042F4E73043FAD1AC420FD0002C0FD164
:101810003A43E7D00CE00122013B9343180001302A
:10182000E5E763460020002BE1D0DBE73A43E6D151
:101830009A45D7D1A542D5DCA54205DBBE42D1D819
:1018400008D00020BE42D2D250460123013898432E
:101850000130CCE7C845C5D80020C845F4D3C6E759
:10186000FF070000F0B54F464646D6464D00C0B5CE
:101870000E03C90F8A462E491F035C008046360BB3
:101880006D0D91463F0B640DDB0F8D4218D08C42DD
:1018900011D0002D18D130438446002C1ED13A437C
:1018A0001CD163460020002B30D051460220013964
:1018B000084001382AE039001143EAD0022025E02F
:1018C0003043FBD1AC4226D0002C26D13A4324D160
:1018D0005146022001390840013817E06246002ACB
:1018E0000FD09A45E1D1A54205DBBE42DDD819D023
:1018F0000020BE420AD250460123013898430130ED
:1019000004E00122013B9343180001301CBC9046C7
:101910009946A246F0BD3A43D0D19A45C5D1A542D9
:10192000C3DCE0E7C845C0D80020C845E3D3EDE7F5
:10193000FF070000F0B55746DE464E464546E0B587
:10194000834606000F03480087B092461D003F0BF8
:10195000400DCC0F002800D16FE0DE4B984238D00C
:101960008023FF001B041F43730F3B430193DA4B9B
:101970000027994600239B46F60081442B0369000B
:101980001B0B52469846490DED0F002900D185E00A
:10199000D04B994200D173E04346DA0080231B0408
:1019A00013435246CC48520F8446134352460020FC
:1019B0006144D20089442100694000918C46012194
:1019C00049448A460F2F00D990E0C449BF00CF593F
:1019D000BF465B463B43019300D06AE102230827E0
:1019E000002681469B46C9E732005846019B614666
:1019F0000091022800D175E0032800D1FEE1012802
:101A000000D02CE100230027002600253F032A0DEB
:101A10003F0BB34812053A4302401B051343009A9B
:101A20005B00D1075B080B433000190007B03CBCDA
:101A300090469946A246AB46F0BD5B463B430193B8
:101A400000D12FE1002F00D1A5E13800FEF7E2FE22
:101A500003000B3B1C2B00DD96E11D22D31A5A46D6
:101A60000100DA405E4608398F4013008E403B4348
:101A700001939C4B00271B1A994600239B467DE748
:101A8000414653460B4393498C46E144002B00D01A
:101A90001AE102220220174300228CE7134300D1EF
:101AA0000DE14346002B00D181E14046FEF7B2FE36
:101AB00002000B3A1C2A00DD72E10100434608399E
:101AC0008B4098461D239A1A5346D3401A0043462A
:101AD000134352468A404946081A8249894681443E
:101AE000002068E77B4B002700268EE7140C1204C9
:101AF000120C1100370C3604350C794328008C4643
:101B00002E0060436044834656432100300C8046DB
:101B10005846794340440291844506D9884680213D
:101B200049028C46E044414602913604010C360CD1
:101B300000048B4681191E0C1B041B0C0391190019
:101B400079438C46280075436544A8465843050CE4
:101B500045447743A94203D9802149028C46674412
:101B6000290C8C4639000004000C2D042D1861440A
:101B7000AB4405915946049101990F043F0C080CA0
:101B8000390051434243904602008C46090C8B4673
:101B900062437C4344445C44A04503D9802149020C
:101BA00088464244210C884661460904090C8C464B
:101BB00039005943434370437E430F0CF618240405
:101BC000BE19644442448C46B34203D980235B026D
:101BD00098464044029B61469846049B3704434420
:101BE0009B46AB45AD416B420D0405992D0C8C46CF
:101BF0007F196744FD18A8465D462D19A542A441EA
:101C000093466442A446C344DC448F42BF41984596
:101C10009B4193459241A445A4415B427F421F43AF
:101C2000360C52426442BF192243BF18624638182C
:101C30004302D20D039913436A020A43501E8241A4
:101C40006146ED0D2A434E023243D90100D4B3E080
:101C50000126500832400243DE0732435B08224C23
:101C60005444002C62DD510709D00F201040042895
:101C700005D0101D9042924152429B180200D9019A
:101C800004D580241948E400034054441848844291
:101C900000DD27E75E075B02D2081F0B63051643D2
:101CA0005B0DB2E6002399460133042700269B46CC
:101CB00064E60323019781460C279B465EE60122DA
:101CC00001201743002276E6032303201F434346E7
:101CD00071E6C046FF07000001FCFFFF64580110D9
:101CE000FFFF0F800DFCFFFFFF030000FFFFFFFE63
:101CF000FE0700000023802700933F030026434B8C
:101D000083E6019B3200A446584670E6AC466EE678
:101D1000802701993F0339422DD03B422BD11F43ED
:101D20003F033F0B00951600384B6EE601252D1B37
:101D3000382D00DD66E61F2D40DC35481C00504480
:101D4000160082408440EE40501E824134431443CA
:101D5000EB40620709D00F222240042A05D022005E
:101D6000141D9442804140421B181A023ED50123A3
:101D70000027002649E68027019B3F031F433F03BE
:101D80003F0B0094214B40E603005A46283B9A4003
:101D9000002601926DE65846FEF73CFD203057E6DE
:101DA00003005246283B9A401300002293E6504617
:101DB000FEF730FD20307BE6CA4650E71F201E00AC
:101DC0004042041BE640202D03D0124C5444A34053
:101DD0001A43501E8241324307260027164009D07D
:101DE0000F200023104014000428B9D122005E0700
:101DF0005B021F0BD2081643002306E680273F0331
:101E00001F433F033F0B1600004BFEE5FF0700009A
:101E10001E0400003E040000F8B557464E464546F5
:101E2000DE460C000903E0B5490A460F5F00314366
:101E30001E03DB0F760A9B46530F3343C84E6500E3
:101E4000C000E40FD2006D0DA24681467F0D9C4676
:101E50009046B74200D1B9E05B46012673409B46ED
:101E6000EE1BA34500D183E0002E63DD002F00D0E0
:101E7000B1E06346134300D123E1731E002B00D071
:101E8000BAE1861A6346B04280410125C91A404230
:101E9000091A0B0200D447E149024B0A984643460F
:101EA000002B00D189E14046FEF7B4FC0300083B5B
:101EB0001F2B00DD7CE120223000D21A4146D040A9
:101EC000994002009E400A439D4200DD6AE15D1B8D
:101ED0006B1C1F2B00DD94E1202110003500C91A76
:101EE0008E40DA408840DD40711E8E41110007228D
:101EF0002843002506433240002A09D00F233340EF
:101F0000042B05D0331DB342B641764289191E0019
:101F10000B0200D43DE26A1C914B55056D0D9A42AF
:101F200000D119E18F4AF6080A4057075202374399
:101F3000120B9BE0002E00D0C5E06E1C7605760DDE
:101F4000012E00DC48E16746861ACB1BB042BF4138
:101F50007F42B8461F004346FF1A3B00B8461B02AB
:101F600000D55FE137439AD100220024002579E0B3
:101F7000002E00DCFAE0002F00D18DE0784B9D426E
:101F800067D0802367461B041F43BC46382E00DC05
:101F900052E1634613435A1E93411E188642804104
:101FA000404209180B0200D4BEE06D4B01359D4242
:101FB00000D1D2E06B4A73080A4001210E401E4353
:101FC0005108D30707221E43324095E71E001643EF
:101FD00000D045E740E7624B9D423AD080236746F8
:101FE0001B041F43BC46382E00DDEBE01F2E00DC37
:101FF0003AE133006746203BDF403B00202E05D00E
:102000004027BF1B6646BE40324390464646721E7E
:1020100096413343DAE0002B00D114E263461343C8
:1020200000D168E180234E07C008C9081B0306439E
:10203000194208D06046C008184204D16346010026
:10204000D2085E071643F3009946C900720F444D4B
:1020500011434B46DE08424B4F073743CA089D42A7
:1020600000D16EE012036D05120B6D0D00211203FD
:10207000130B0A0D12051A433B4B2D0513402B433E
:102080005B00E4075B082343380019003CBC904622
:102090009946A246AB46F8BD6346134311D0731E62
:1020A000002B00D007E186188642804161444042FF
:1020B000091801250B0237D502257BE73E00614652
:1020C00091463500C5E75C46002D00D0E1E00B00ED
:1020D0000343F3D0731C00D1ACE1214B9F4200D1EC
:1020E0003AE1F343382B00DD6FE11F2B00DD8CE17B
:1020F00020250E00ED1AAE40B0460600AA46DE408E
:10210000454635432E005546D940A8406346451EF6
:10211000A8415B1A9C463043161AB242924163466C
:102120005242991A3D00B4E607223240002A00D0FC
:10213000E4E60B4BF6084F073743CA089D4200D030
:1021400090E73B00134300D1A6E180231B031A4311
:102150001203120B024D89E715000022002785E7C4
:10216000FF070000FFFF7FFFFFFF0F80002E00D062
:10217000C7E06B1C5E05760D012E00DCF0E0C84D5B
:10218000AB4200D1B9E085180A008542894162441A
:10219000494251180722CE076D082E4349083240A4
:1021A0001D00A9E6BF49ED1A114007223240A3E6FF
:1021B000320028388240002686E63000FEF72AFBEF
:1021C000203073E6634613435A1E9341C61AB04249
:1021D00080414042091A5CE60E00674606431743F9
:1021E000002D5ED1002E00D0F3E0002F00D11EE1C3
:1021F0005C46614691462CE7A94FBE427BD01E004B
:10220000F1E610001F3DE840202B03D04021CB1AFF
:102210009A401643731E9E41072206433240002116
:10222000002583E7161A6346B2428041591A40429C
:102230000B1A98465C4632E61F2E00DDABE02027E5
:10224000BB1B9A4663465746BB40994613004F4610
:10225000F3401F433B005746BA40571EBA41134351
:102260006246F240891898E62027BB1B9A466346CF
:102270005746BB40994613004F46F3401F433B006F
:102280005746BA40571EBA4113436246F240891A74
:102290009CE7834B9F425FD080252D0473422943E6
:1022A00020E7002E0CD1002F00D1D0E05C46614623
:1022B00091467B4DCDE67A4FBE421CD01E0065E6AE
:1022C000002F18D0C0084E0706438020C90800031D
:1022D000014208D06346DC08044204D12100DA46FA
:1022E000D2085E071643F300994601245346C900FD
:1022F000720F11431C406A4DABE61D0000220027FF
:10230000B4E6002D59D10B00034300D1D6E6731C6F
:1023100000D1B2E0624B9F421ED0F343382B6FDCFA
:102320001F2B00DD97E020250E00ED1AAE40B046D1
:102330000600AA46DE40454635432E005546A840D5
:10234000D940451EA8418C440643B6189642924196
:10235000514261443D0025E63D006146914678E6E4
:102360000B000343002D00D055E6002BF5D063464B
:10237000134300D16DE68618864280416144404295
:10238000091800220B0200D4D0E6464B0135194053
:10239000B2E5B1465DE633006746203BDF403B00D7
:1023A000202E05D04027BF1B6646BE4032439046D4
:1023B0004646721E96413343EFE5394B9F42CBD0E0
:1023C00080252D0473422943A8E70843411E884114
:1023D000A2E6002F00D13CE66346861ACF1AB0422F
:1023E0009B415B42FB1A98461B024ED5161A634668
:1023F000B2429241591A5242891A5C4600227BE548
:1024000001430E00711E8E419FE71D000E00203D0E
:10241000EE40B046202B04D04025EB1A99400843EB
:10242000814648464346411E8841184374E60022CF
:10243000002417E6161A6346B2429241591A5242D4
:10244000891A3D0025E561469146154D01E6802239
:102450000024120379E61D000E00203DEE40B04638
:10246000202B04D04025EB1A9940084381464E4664
:102470004346711E8E411E4367E7861896429B4174
:1024800061445B42C9183D008CE547463743CED0D6
:1024900007224146324049E600273A00E6E5C046B9
:1024A000FF070000FFFF7FFF70B50C4E0D031C03FC
:1024B00049005B002D0B490D240B5B0DB14208D088
:1024C000064900208B4203D114432000441EA04142
:1024D00070BD05430120002DFAD1F1E7FF07000090
:1024E00030B5144D0A034B00120B5B0DC90F0024CD
:1024F000AB4211DD104CA34210DC80246403224364
:102500000E4CE41A1F2C0CDD0D48C31ADA401300E0
:102510005C42002900D11C00200030BD094BCC18C2
:10252000FAE7094DE040AC4663449A401300034388
:10253000EEE7C046FE0300001D0400003304000067
:1025400013040000FFFFFF7FEDFBFFFF70B50028C5
:102550002DD0C317C5185D40C40F2800FEF75AF9E7
:10256000154B1B1A5B055B0D0A2815DD0B388540E2
:1025700000222D032D0B002110002D030A0D2D0B21
:1025800012052A430D4D1B052A4013435B00E40747
:102590005B082343190070BD0200290015329140E9
:1025A0000A000B21081AC5402D032D0BE3E7002478
:1025B000002300250022DEE71E040000FFFF0F803D
:1025C00010B5041E25D0FEF725F9144B1B1A5B0528
:1025D0005B0D0A2812DD0B38844000222403240BF3
:1025E0000021100024030A0D240B120522430C4C79
:1025F0001B05224013435B00590810BD0200210057
:10260000153291400A000B21081AC4402403240B00
:10261000E6E7002300240022E2E7C0461E04000093
:10262000FFFF0F8010B5002903D1FEF7F3F820302B
:1026300002E0081CFEF7EEF810BDC046F0B54E46AD
:102640005746DE464546E0B50F00002183B0060040
:102650008946002F06DA3900002746428F410121C2
:1026600049428946002B07DA4946C943100089468A
:102670001900002342428B4134003D0092469846A7
:10268000BB4269D866D041465046FFF7CBFF834630
:1026900039003000FFF7C6FF5B461B1A9C46203B03
:1026A0009B4600D575E05146584681400B00514687
:1026B000604681400A00BB4261D85ED034003D00D4
:1026C0005946A41A9D41002900DA7AE00021002031
:1026D00001260090019159468E40019661460126DF
:1026E0008E4061460096002950D0D90756085F08F1
:1026F0000E4363460EE0AF4201D1A6420CD8A41BA4
:10270000BD41012124196D410022013B641855414E
:10271000002B06D0AF42EED9013B24196D41002BAE
:10272000F8D1009801995B4600196941002B3DDB07
:102730002E00DE4063462C00DC405B46002B4BDB6A
:1027400034005D46AC4023006446A6403200801A47
:10275000994103E0B24296D9002000214B46002B5C
:1027600004D003000C0000215842A14103B03CBC3E
:1027700090469946A246AB46F0BDB1429ED9002193
:1027800000200090019161460029AED10098019986
:10279000E4E72023624651469B1AD9404046009107
:1027A00061468840030000990B4380E7624620237E
:1027B0009B1A2A009A40260013006246D6401E4308
:1027C000B8E7614620260127761A00200021F7404D
:1027D00000900191019781E767462023624635000A
:1027E000BC409B1ADD4023002B43ADE7024670B589
:1027F0000A4392072AD11E4DEE0104C808C9541B92
:102800009443344017D0D0B2D9B2401A21060143C4
:1028100010D190B299B2401A210401430AD110029A
:102820001902000A090A401A2102014302D1100EBE
:10283000190E401A70BD9A42DFD010BA19BA8842F8
:1028400001D9012070BD0020C04370BD02780B7813
:1028500001300131002A09D09A4207D102780B7861
:1028600001300131002A01D09A42EFD0D01A70BD58
:042870000101010160
:022874007047AB
:1028780070B51F4D1F4C2B781F4A5B00995A2000DA
:1028880000F0ECF9002320006361032100F09BFDB8
:102898001A4B1B492361200003F069FD2000022127
:1028A80000F091FD174B297823610A22013120009D
:1028B80003F0BBFD1449200003F059FD0A2207214B
:1028C800200003F0CCFD114C1149200003F04FFD0E
:1028D80029780A220131200003F0ABFD287807216E
:1028E8000130FDF737FF0B48297003F0FFFD70BD7D
:1028F800BB2A0020E4290020A45801101E0064000F
:10290800B258011032008C00B8580110201C002069
:08291800BA580110DC050000B3
:10292000142313B5074C0193023B00931522013386
:102930001621200001F088FD034A0449200009F017
:1029400029FC13BDE429002088020020752800100E
:10295000E12130B53C4D85B04902280002F06EF906
:10296000280001F083FF002804D103F0B3FD374BAA
:102970009842F5D93649280003F00EFDF022354C77
:1029800011000023200001F083FD2000032101F04D
:1029900017FD2000002100F065F90023E376013BDC
:1029A00063612000022100F012FD2B4B2B492361B3
:1029B000200003F0F1FC2000012100F008FD284B6D
:1029C00028492361284B2000636103F0E5FC274B75
:1029D00027492361274B2000636103F0CCFC264B81
:1029E00026492361200003F0C6FC254B20000193FB
:1029F0003C235A2200930A21283300F040F9214B4E
:102A00002000009378221E23AA2100F08CFAAA222B
:102A10001D4B009201932000E6230A2100F070F97B
:102A2000F8231B020393A022E62301920293009352
:102A30001932963B2000782100F0A1FA13492800B2
:102A400003F0AAFC05B030BD201C0020B70B00002D
:102A5000BF580110E42900200A000A00DD580110C7
:102A60000A002800E7580110E007E0070A003700D5
:102A7000F9580110FF07FF070A0044000859011028
:102A8000E0FF00001FF80000FFFF00001B590110CD
:042A9000002070476B
:022A9400704789
:102A9600F0B51D0089B00EAB00241C5F0FAB1B8880
:102AA60016000693A31ADA179B18534002936B1A63
:102AB600DA179B1853400393039A029B01909342A3
:102AC60005DC23002C001D0033000E001900A64271
:102AD60005DC2B000D001900230034001E00331BFB
:102AE6009BB204934B1BDA179B18534007936B4614
:102AF60010229A5ED30F9B185B10009301238D4220
:102B060021DA0593B44224DC019B039A1B689B6976
:102B16001F00029B934218DD22002900069B0198A4
:102B2600B847009B079A9B1A9BB21AB20092002ADA
:102B360006DA059AAD18049A2DB2D3181BB2009383
:102B4600013424B2DEE75B42DBE7069B2A00210064
:062B5600E5E709B0F0BD47
:022B5C007047C0
:0A2B5E0010B504682469A04710BDFB
:102B680037B506AC258804680095A46BA04737BD27
:102B780037B506AC258804680095E46BA04737BDD7
:102B880073B506AC0025655F07AC26880468019616
:082B98000095246CA04773BDF9
:102BA000F0B5160004000D0085B003930AAB1F8832
:102BB00003685B699847039B2268013B9B191BB222
:102BC00000930197976A2B00320029002000B84734
:0C2BD00023682000DB6A984705B0F0BDC8
:102BDC00F0B505001C000E00170085B00AAB1B8871
:102BEC00013C03930368A4195B69984703992A680D
:102BFC000191009723B23100946A28003A00A04753
:0C2C0C002B682800DB6A984705B0F0BD7B
:102C1800F0B50E0087B003930CAB029200229B5EC6
:102C2800050004930DAB1B883400059303685B69AA
:102C38009847039A2B68B21894420ADA059A210039
:102C480000921F6A029A049B28000134B84724B2F4
:0C2C5800EFE7DB6A2800984707B0F0BDEA
:102C640013B501910E24015F0C22835E026800916A
:0A2C7400146C00221100A04713BDEC
:102C7E00F0B5040015000E0087B004930CAB0022D3
:102C8E009B5E05930DAB1B88039303685B699847A6
:102C9E00039A236800925F6A2A00049B3100200089
:102CAE00B847059B03995A1E2368009152195F6A13
:102CBE003100049B200012B2B847039A2368009299
:102CCE001F6A2A00059B31002000B8470499039A19
:102CDE00236801390092891909B21F6A2A00059BDF
:102CEE002000B84723682000DB6A984707B0F0BD84
:022CFE0070471D
:102D0000F0B585B01E000AAB0027DF5F0BAB1B8858
:102D100014000500029103930268B14210D1BC4235
:102D200002DC3B0027001C00039901340091E31BE7
:102D3000966B1BB23A0002992800B04705B0F0BD6F
:102D4000BC4211D1029BB34202DC3300029E0293CB
:102D5000029B0399013300919B1BD76B1BB222008E
:102D600031002800B847E9E753699847039A2B6870
:102D7000019200979F6A2800330022000299B84709
:0A2D80002B682800DB6A9847D8E7AB
:102D8A000323194010B50822835E81760A24025F64
:102D9A00012904D0032902D08381C28110BD828116
:042DAA00C381FBE7FF
:102DB0004281C2810122524242610222002310B5A7
:102DC000FF32074C0283013A0834FF3A4360046043
:102DD0000181818103618376C2760377036210BD2E
:042DE0004C5E011034
:102DE400F0B51C008FB00692012214AB1B7805913C
:102DF400079316AB1B8805000893A3B2D11A93401E
:102E04005B421BB20C9315AB1B8809B209939B1848
:102E14009BB20B930023039104930D92049BA34252
:102E24007DDA039B0294002B0BDB631E1BB202931F
:102E34000C9B02339BB21AB20C92039A9B181BB2DE
:102E44000393049E039A0136B6B233B2049373001B
:102E54009BB20A9301339B181BB20393049A029BFF
:102E640093422BDB079B0D9A134211D06B461A89B0
:102E74000B995300CB180699089F8A1A059928685C
:102E840071180097076A1BB212B209B22800B8473A
:102E94000222079B134211D06B461A890B995300E7
:102EA400CB180699089F8A1A05992868891B0097E8
:102EB400076A1BB212B209B22800B847029B9C42AF
:102EC4002BD0079B0D9A134211D0099B0A9A013B00
:102ED400D318069A089F059928680132921B09198C
:102EE4000097076A1BB212B209B22800B84702223F
:102EF400079B134211D0099B0A9A013B0599D318E9
:102F0400069A091B089C28680132921B0094076AE0
:102F14001BB212B209B22800B847029C7EE70FB078
:022F2400F0BDFE
:102F2600F0B504001E00170087B00CAB1B88049197
:102F3600059303685B699847059821680090B2B2CB
:102F4600096A53000133BA1A0D00200004991BB216
:102F560012B2A847059B3A0002930023019303335C
:102F66000093049933002000FFF739FF23682000FF
:082F7600DB6A984707B0F0BDCB
:102F7E00F0B5040089B005930EAB00269E5F0FAB33
:102F8E00049200229B5E0391069310AB00229B5E7F
:102F9E00049A079311AB1D880368019500969F6CE8
:102FAE00059BB847079A2368019500929F6C3200E3
:102FBE00069B05992000B847049A23680092019554
:102FCE009D6C079A039B06992000A84709B0F0BD97
:102FE000F0B595B01D001AAB1B88040005931BAB10
:102FF0001E881CAB1B78089103931DAB1B780492B1
:103000000293036A002B00D0C4E00C22835E8B4243
:1030100000DC7DE00E22835E049A934278DD062375
:10302000039A53435B18002B72DD029B049ADB006A
:103030009B18002B6CDD037F002B03D1AF2D01D932
:103040000135EDB2236820005B69984705235D4395
:103050000B9300230793984B5B190F93079A0F9BD1
:103060009B5C0A936B469B8B09936B469B890D93E4
:103070006B460D9A1F8C099B5343FB181BB20E9392
:1030800008230C930023069301220A9B2068134215
:1030900052D06B461A8B198A039B012B3AD1029BA3
:1030A000012B37D1099B52188569D919059B12B29A
:1030B00009B22000A847069B01335BB206930A9B26
:1030C0005B080A930C9B013BDBB20C93002BDBD11A
:1030D000079B01335BB207930B9B013BDBB20B9366
:1030E000002BBBD1059BB3420ED0039B2268012B62
:1030F0003FD1029B012B3CD105370096156A39B2AE
:103100000733049A2000A84723682000DB6A984709
:1031100015B0F0BD6B460C255B5F029D6A438A18B3
:10312000059912B2019169460825495F0091C56968
:103130000E992000A847BEE7059BB342BBD06B4663
:10314000198B1A8A039B012B0AD1029B012B07D1F1
:10315000099B5218D91912B209B285693300A8E740
:103160006B460C255B5F029D01966943521812B2B3
:10317000D9E76B460C215B5E05210D980196414312
:1031800002987918C0000090D56909B2049A20000D
:10319000A847B9E71A7AAD1AEDB25A68ED001B6874
:1031A000551913932B880993AB780D93EB781193F2
:1031B0000523EB560E930623EB560F93039B012B2F
:1031C00002D8029B012B56D96B4638229B5E0B938B
:1031D0006B463C229B5E0C930027236820005B69B2
:1031E000984707970697119B069A9A4200D38BE758
:1031F0006B461B8A00260A930C9B9B18029A53432A
:103200000A9AD3181BB210933B000D9A96424BD2E8
:103210005A1CD2B212920722134207D1099B099974
:10322000139A0133525C9BB2079209936B461B7F42
:103230005BB2002B17DA6B46198C039B2068012BBD
:103240001DD1029B012B1AD10A9B0F9A9A18069B3B
:10325000D2180E9B12B2C918836989191D0009B2D0
:10326000059B2000A847079B01365B00DBB2079354
:10327000F6B2129BC9E700230C930B93ACE76B46A5
:103280000C229B5E0B9A039D92196A438918059A3A
:1032900009B201926A460825525F0092C269200075
:1032A0001500109AA847DEE7069D0D9B0135FF1813
:0C32B000EBB2FFB2069396E749590110FB
:1032BC00F0B5026A85B004000B00002A34D10A294B
:1032CC0008D1437E0282DB00628A9B186382012054
:1032DC0005B0F0BD0D29FAD0E17E007E657E002997
:1032EC000ED01026A15F0626464389190C27E65FEF
:1032FC00B14205DD1226A15F2282EA0052186282D9
:10330C000290E08A1221625E0190A08A1026A15FD1
:10331C00009003952000FFF75DFE0622237E5343A9
:10332C00228A9B182382D2E70A2905D10023038223
:10333C00127B437E5343C7E70D29C8D0117A8B42C9
:10334C00C5D3907A9842C2D3591AC9B25068C900F1
:10335C004518AF78002F28D0E978002925D0E17ED8
:10336C00207E667E002913D005216956C919414378
:10337C008C461021675EBC440C21675EBC4507DDA2
:10338C001227E15F00272782127B72435218628258
:10339C000290E08A1221625E0190A08A1027E15F00
:1033AC00009003962000FFF715FE2B79227EB6E7DE
:1033BC00002900D101310176002A00D10132427678
:0233CC00704748
:0A33CE0010B50A00FFF7F3FF10BD71
:0C33D80010B5C0B2012103F0EDF810BDEB
:0C33E40010B5C0B2002103F0E7F810BDE6
:1033F00010B504000021007803F0E0F820780121E6
:0634000003F0DCF810BD32
:10340800F0B500250027040085B01E000AAB5D5703
:103418000BAB1B7812B25BB201930CAB1B7809B2F1
:103428005BB202930DABDF570EAB1B785BB2039315
:10343800FFF7BAFC0E4B0122083323602300343314
:103448001A706A465F709E70DD700023127AA3635B
:10345800A3872364E31DDA776A461279631DDA7756
:103468006A462000127BA31DDA7705B0F0BDC0467E
:04347800A45E01103D
:10347C00F8B504000E001700002900D1404E2500BD
:10348C00002036352856002807DBC0B2012103F096
:10349C0051F82878012103F08BF82500373528786E
:1034AC00012103F047F82878012103F081F823006B
:1034BC0034331D78002D2FD10C3B320A5A70320C4C
:1034CC009A7001221E70360EDE701F715A719D713A
:1034DC00606A27630368DB6A9847002035342056FE
:1034EC00002818DBC0B2012103F024F80121207858
:1034FC0003F05EF8642002F0F7FF0021207803F05F
:10350C0057F8642002F0F0FF2078012103F050F806
:10351C00C82002F0E9FFF8BDE61DA71D012D1AD148
:10352C00631DD87F290003F005F8631DD87F0021A7
:10353C0003F03EF8F07F290002F0FCFFF07F002141
:10354C0003F036F81F2038560028C6DBC0B2002125
:10355C0002F0F0FFC1E7F87F012102F0EBFFF87FEA
:10356C00012103F025F81F2030560028B5DBC0B22E
:10357C00012102F0DFFFF07F012103F019F8ACE725
:04358C000024F40023
:10359000F0B585B002AB9E1D0500141E31804BD0E6
:1035A0000200343212788BB2002A14D1234A456AC1
:1035B0005BBAAD1A6A1E954180226D42D201154058
:1035C0001F4A3380AD18013C36D302223100280057
:1035D00000F03AF8F7E7012A23D10292013C2BD3FD
:1035E0001027338801936B1DD87F6B4604229B5EA6
:1035F0000299002B00DB002102F0E0FFEB1DD87FD9
:10360000029902F0DBFF019B013F5B009BB201933B
:10361000EB1DD87F0021BFB202F0D0FF002FE2D116
:10362000DCE71A0ADBB29A4206D0013C04D3280038
:103630002530FFF7DDFEF8E705B0F0BDDC15002012
:1036400000C003400000000001B40248844601BCF1
:08365000604700BF33020020B7
:10365800F0B505001E0085B00AAB00241C5F0BAB5B
:103668001B880068A7B200970393476DB3B2280080
:1036780092B289B2B8472200039972432800FFF733
:0636880083FF05B0F0BD58
:10368E00F0B587B00CAC0025645F0DAD2D880595A7
:10369E00002B41D0002C3FD0002B05DA9BB201311C
:1036AE0059185B4209B21BB20C26855F8D4233DD81
:1036BE00002C05DAA4B20132A218644212B224B26E
:1036CE000E27C65FB446964226DDCE18B6B20396D6
:1036DE00013E36B20496002E1EDB1719BFB27E1EB7
:1036EE0036B2002E18DB002903DA6B460C215B5E26
:1036FE000021002A01DA00223CB2049FBD4201DC07
:10370E006B1A1BB2B44502DC6446A41A24B2059DA2
:0C371E0000940195FFF799FF07B0F0BD83
:10372A00F0B587B01C000CAB00255D5F0DAB1B88A4
:10373A0007000E0002920593002C53D0002D51D0A1
:10374A00002C05DAA4B20136A619644236B224B2B4
:10375A000C23FA5EB24245DD002D07DA029BADB2B8
:10376A000133EB181BB26D4202932DB20E217B5E20
:10377A0002998B4236DD311989B28C46013909B278
:10378A00039100292EDB0299481980B2411E09B221
:10379A000491002926DB002E02DA6446002624B2B0
:1037AA000299002902DA002105B2029103998A429C
:1037BA0001DC941B24B2049A934202DC029A9D1AF9
:1037CA002DB23B6838005B699847059B3800019326
:1037DA0000952300029A3100FFF739FF3B68380051
:0837EA00DB6A984707B0F0BD4F
:1037F200F0B585B01C000AAB1B8806000D00171E31
:10380200039330DB0E22835EBB422CDD002C2AD0D8
:1038120005DAA4B20135651964422DB224B20C2234
:10382200B35EAB421FDD291989B24A1E12B2002AC9
:1038320019DB002D01DA00250CB2934201DC5C1B7E
:1038420024B2336830005B699847039B30000193D0
:1038520001233A00009329002300FFF7FCFE33689E
:0A3862003000DB6A984705B0F0BDA6
:10386C00F0B585B01C000AAB1B8806000F001500D4
:10387C00039300292FDB0C22835E8B422BDD002C63
:10388C0029D005DAA4B20135651964422DB224B2EF
:10389C000E22B35EAB421EDD291989B24A1E12B24A
:1038AC00002A18DB002D01DA00250CB2934201DC52
:1038BC005C1B24B2336830005B699847039B300073
:1038CC000193009401232A003900FFF7BFFE3368EF
:0A38DC003000DB6A984705B0F0BD2C
:1038E600F7B508AC2688002A23DB0E25445F9442F0
:1038F6001FDD002B1DD005DA9BB2013159185B4242
:1039060009B21BB20C25445F8C4212DDCF18BFB240
:103916007D1E2DB2002D0CDB002901DA00213BB201
:10392600AC4201DC631A1BB2012401960094FFF736
:0439360090FEF7BD4B
:10393A00F7B508AC2688002923DB0C25445F8C42A6
:10394A001FDD002B1DD005DA9BB201329A185B42AB
:10395A0012B21BB20E25445F944212DDD718BFB2D1
:10396A007D1E2DB2002D0CDB002A01DA00223BB2AB
:10397A00AC4201DCA31A1BB2009301960123FFF7A4
:04398A0066FEF7BD21
:10398E00020010B5343212780300002A05D1406AC5
:0C399E00996A0268D469DA6AA04710BD7B
:1039AA0010B50400FFF7EEFF36202056002801DB91
:0639BA00FFF713FD10BD34
:1039C000030010B534331B78002B03D1406A036821
:0639D0001B6A984710BDC0
:1039D60010B5040036202056002801DBFFF7F9FC5D
:0839E6002000FFF7EAFF10BD0D
:1039F000F7B56B46DF1D0300397034331D780400C2
:103A0000002D0FD1184B406A0122C01A431E984165
:103A100080234042DB011840144B3900C01800F0ED
:103A200027F8F7BD012D1BD10826631DD87F3B78F1
:103A300029007F2B00D8002102F0C0FDE31DD87FB4
:103A4000290002F0BBFD3B78013E5B003B70E31DAB
:103A5000D87F0021F6B202F0B1FD002EE5D1E0E7FB
:103A60002530FFF7C5FCDCE7DC15002000C0034073
:103A700001B40248844601BC604700BF3302002005
:103A800070B50400050000200E0037342056FFF703
:103A9000A9FC31002800FFF7ABFF00202056FFF7FC
:043AA0009BFC70BD5E
:103AA40070B5040003680D005B6998472300002D7E
:103AB40009D03C3319782000FFF7E0FF2368200089
:0A3AC400DB6A984770BD3D33F4E75C
:103AD000F7B56B469D1D0300298034331B78040025
:103AE000002B12D11A4B406A0222C01A431E984181
:103AF00080234042DB011840164BC0188BB25BBAE2
:103B000029002B8000F028F8F7BD012B1CD11026CE
:103B10000093631DD87F0022AB5E0099002B00DB71
:103B20000021E71D02F04AFDF87F009902F046FDF2
:103B3000F87F002102F042FD2B88013E5B00F6B2C7
:103B40002B80002EE5D1DFE72530FFF751FCDBE7C6
:103B5000DC15002000C0034001B40248844601BCCB
:083B6000604700BF33020020A2
:103B680073B504001D00002915DB0C20235E8B4271
:103B780011DD002A0FDB0E20235E93420BDD0123AB
:103B88002068009389B2466D92B22000B0472900A0
:083B98002000FFF799FF73BD47
:103BA000F7B504000D0017001E0000291CDB0C22D5
:103BB000835E8B4218DD002F16DB0E22835EBB4234
:103BC00012DD03685B699847012320680093A9B25E
:103BD000BAB2456D2000A84720003100FFF778FFFA
:0A3BE00023682000DB6A9847F7BD58
:103BEA00F7B504002600009115000193FFF7CAFEFD
:103BFA00002036363056002801DBFFF7EEFB27009F
:103C0A00002037373856FFF7E8FB00992000FFF706
:103C1A00EAFE00203856FFF7DAFB0027019BBB4279
:103C2A0016DD230034331B78022B0BD12300083313
:103C3A00DB7F002B06D029882000FFF744FF0235DE
:103C4A000137EBE729782000FFF7CDFE0135F7E7CA
:103C5A0000203056002801DBFFF7B9FB2000FFF7F0
:043C6A00AAFEF7BDFA
:103C6E00F7B5040001930F001500FFF789FE23003E
:103C7E000020363300931856002801DBFFF7ABFB0C
:103C8E002600002037363056FFF7A5FB39002000FE
:103C9E00FFF7A7FE00203056FFF797FB0026019B8B
:103CAE00B34217DD230034331B78022B0CD12300D3
:103CBE000833DB7F002B07D029882000FFF701FF98
:103CCE00AF1C01363D00EAE7297820006F1CFFF794
:103CDE0088FEF6E70020009B1856002801DBFFF750
:0A3CEE0074FB2000FFF765FEF7BD30
:103CF8000300F7B5343301911E780400002E11D16A
:103D0800194B406A0422C01A431E9841802340423E
:103D1800DB011840154BC0180BBA01A9019300F03C
:103D280027F8F7BD012E1AD12025631DD87F019BE6
:103D38003100002B00DB0021E71D02F03BFCF87F7F
:103D4800310002F037FCF87F002102F033FC019BC0
:103D5800013D5B00EDB20193002DE6D1E1E725308E
:103D6800FFF742FBDDE7C046DC15002000C003403A
:103D780001B40248844601BC604700BF33020020FA
:023D8800704782
:0C3D8A0010B50368C9B21B68984710BD53
:0E3D96008B23002249009B00C161C250704780
:0C3DA40010B5036801211B6B984710BD8F
:0C3DB00010B503689C6B0123A04710BDF8
:103DBC0030B58B248025A400025903006D0000202F
:103DCC00AA4206D0501C185101209B182D33FF33EA
:043DDC00197030BD6D
:023DE00070472A
:083DE2008C239B00C1507047C7
:083DEA008D239B00C1507047BE
:103DF2000300FC33DA6A002A04D09B6A0130C0183F
:0A3E0200C07F704701204042FBE73B
:103E0C0070B5036804005B6A9847402008F0DEFB3D
:103E1C0005001A23E25E1823E15E04F041FE6561A1
:023E2C0070BD67
:0A3E2E0010B50C220CF04BFB10BD88
:103E380070B58B25AD00435906001400D0188022B8
:103E48005200904200D9D41A30002D30FF30C018EB
:103E580022000CF037FB735920001B19735170BDF9
:103E680070B5050040690C00002801D004F040FD41
:0E3E78002869002802D0210004F05CFE70BD15
:103E860010B50400FC3407F004FFE46A07F017FFDE
:043E9600200010BD3B
:103E9A0010B5040007F0FBFE2300FC33DA6A002A9F
:103EAA0011D0DA6A002A0ED09A6A0134A4189A6AE2
:103EBA00E47F0132D2B29A62DA6A013ADA6207F030
:0C3ECA00FCFE200010BD01246442F8E75B
:103ED60070B504004069002804D00368DB68984781
:103EE600002363612369002B13D08E25AD00605932
:103EF60008F04FFE605908F06DFE6059002802D0A8
:103F060003685B6898470C21206908F092FB002340
:043F1600236170BDF6
:103F1A008B2330B502000C0001259B00C35885B0E5
:103F2A004069D1696C40002B07D100942B0003AA89
:103F3A0004F00DFDC0B205B030BD2D32FF32009441
:0C3F4A0004F0E5FC431E98414000F4E741
:103F5600F0B514008022C3B005005200944200D987
:103F6600140001225340009302AE490023003200A0
:103F7600686904F0EEFC002817D12B00FF27FC33FC
:103F86000135A04212D08021DA6A49008A420AD05D
:103F96005A6A315CAA18D1775A6A01323A405A6293
:103FA600DA6A0132DA620130EBE70024200043B01E
:023FB600F0BD5C
:103FB800F0B50400FF27C1B0206904F0C8FD03284C
:103FC800FAD8FCF74DFA5C0222228D239B00E358B5
:103FD800002B00D098478B26B600A359002BEBD0B6
:103FE80007F056FE2100A5592D313D402A00FF312A
:103FF80068460CF067FA0023A35107F05FFE2A0019
:104008006946206904F0ABFDD6E7F02269462069CD
:1040180004F0A1FD050007F03BFE23000022FC335D
:104028005A62601C9A62DA62AA4215DA8026D96A54
:104038007600B14210D0D96AB1420BD06E46596AA7
:10404800B65C4118CE77596A013139405962D96A4C
:104058000131D9620132E7E707F030FE236820001A
:104068001B6998470028A7DD8C239B00E558002D85
:10407800A2D0236820001B699847A8479CE702F054
:0440880045FA99E775
:06408C000023C360704731
:0E409200C36810B5002B01D09B68984710BD85
:1040A000FA2370B500254283802204009B008360C0
:1040B0000C4B456008330561456103600183520084
:1040C000290020300CF094FA2300FC335D629D62DD
:1040D000DD628B239B00E5500433E5500433E5504B
:0840E000200070BD1C5F0110FF
:0E40E80010B504000021FFF7CDFF200010BD31
:0C40F60010B50400FFF7CAFF200010BD49
:1041020010B542680368086854100019D20701D537
:084112000268D358984710BD64
:0C411A0010B501000430FFF7EFFF10BDEE
:1041280010B5024BC3601CC91CC010BD045F011050
:1041380010B586B00400684603910092436004AB52
:1041480006C806C3200003A9FFF7EAFF200006B04F
:0241580010BD98
:0C415A0013B50400FFF7EBFF200016BDBA
:1041680070B5036888B05B6A04000E0098470C209D
:1041780008F02EFA05001A23E25E1823E15E04F027
:10418800BFFC71002561280004F0D8FCBC2008F0B1
:104198001FFA0500134B08C0FFF7A2FF28000021F3
:1041A800403008F06DFC2800543008F005FC8022EF
:1041B8000D4B2800009312010023182108F0DEFCA3
:1041C8008E239B00094AE5502100002304A8FFF72D
:1041D800C0FF04A9280008F03BFD04A8FFF787FFEB
:1041E80008B070BDB8780110105F0110B93F001019
:0841F80010B5FFF78EFF10BDAA
:0842000010B5FFF7F9FF10BD36
:1042080010B5042002F04CF90400052002F048F92A
:10421800210002000148FFF73FFF10BDF415002000
:104228000B000F2130B50122172487B069440B70A9
:10423800C3686C44186803680092DD682300A847C7
:06424800207807B030BD34
:10424E00F8B5427A036805000C00CFB29B680E0ADF
:10425E00002A0FD13900FF2798472B68BC4304432F
:10426E009B6831002800984703022000384018430D
:10427E0080B2F8BD31009847FF262B68000234400B
:10428E0004439B68390028009847B4432043EFE766
:10429E0013B5C368186803680092DC680B00A0476A
:0242AE0013BD3E
:0242B000704755
:0242B200704753
:0242B400704751
:1042B60030B5436885B004000D000291039299421F
:1042C60005D113000192826853401B0210D002AB45
:1042D6001A79E3680821186804F0E4FCE368290009
:1042E600186804F0FBFC201D072202A90CF0EBF86D
:0442F60005B030BD22
:1042FA00C36810B50400002B0BD01868002808D03A
:10430A0003685B6898470421E06808F090F9002385
:04431A00E36010BD8F
:0E431E0010B50400182108F088F9200010BD29
:10432C0037B5C5680400002D04D1042008F04EF9FF
:10433C00E0600560E3681B68002B11D1302008F0A9
:10434C0045F91422A35E05001021625E1220215E45
:10435C00012040420090280004F066FCE3681D60D8
:02436C0037BD5B
:1043700070B5102002F098F80500132002F094F8B0
:104380000400122002F090F8094A0A4B08321A6021
:104390000121002259725A601A729A72DA60988268
:1043A000054A064918001D825C8207F0F3FE70BDC5
:1043B000745F0110DC15002088020020B542001057
:1043C00037B56B46DA1D0023137003331940030021
:1043D00081764A3300241C5F03004C3300255B5F69
:1043E00002291FD0032925D00500453501290ED00B
:1043F000C021117001004431097801872978418773
:104400008481C38101233621FFF7EFFB37BDA02153
:10441000117029780187010047310978C4814187EB
:104420008381EFE7010047310978018701004831B6
:104430000978E4E7602111700100483109780187AB
:0644400001004431E9E730
:10444800F0B50025002687B004000CA845570127C1
:104458000DA88657A0207F42019300920B004200CE
:10446800049703960295F021200000F0B7F8054B59
:104478002200083323602000002347321370537052
:0844880007B0F0BDD45F011084
:10449000F8B5150002000400463213700E0000212A
:1044A000871D00F0E9F82100220048314732F02E44
:1044B00015D1F02D1ED100230B701370A023DB014A
:1044C000FB8723004A331E805D802000144900F0E2
:1044D000B3F8236800211B6B20009847F8BD872E96
:1044E00008D1F02D06D128230B700E4BFB87342307
:1044F0001370E6E7A0204000401BC30F1B185B10A1
:10450000DBB20B70210045310B70F021891BCB0F02
:104510005B185B10DBB2137022004432E8E7C04640
:08452000B05F01103528000016
:1045280010B5002900D10549054B016483870300B4
:1045380046331A78FEF79EFF10BDC0460048E801D2
:04454800212000002E
:10454C0070B504001E00008F04AB1D88638F081823
:10455C00D21880B292B2861955190004013E120489
:10456C0006432A212000013D1543FFF783FA310051
:10457C002000FFF7BBFB20002B21FFF77BFA290063
:10458C002000FFF7B3FB2C212000FFF773FA70BD5E
:10459C0013B56B46DA1D0023137003331940030067
:1045AC00817644331C7801331B78022905D003290A
:1045BC000FD0012908D0C021117004874387012333
:1045CC003621FFF70CFB13BDA02111704487038724
:0645DC00F5E76021F9E79C
:1045E400F0B5040089B007930EA80FAD10AE11AF5B
:1045F40012AB00782D7836783F781B7840B26DB2D4
:1046040076B27FB25BB204930090079B0397029645
:1046140001952000FEF7F6FE054B200008332360C9
:104624000023A21DD3874032137009B0F0BDC046E9
:0446340034600110DD
:10463800F7B50C7801904B1C013CE4B2FF2C16D066
:104648007F255F789E1C3D40197832002B00019829
:10465800FFF709FB7AB27319002AEDDA18785D1CA6
:10466800FF2800D1F53001F041FF2B00E4E7F7BD4A
:10467800036870B51B6D0D00002104009847002DDC
:0C46880003D029002000FFF7D3FF70BD15
:1046940070B5104C10492068104A114B88420FD154
:1046A400606890420CD1A068984209D100250D4859
:1046B400256009F09DFF03008020290080049847AD
:1046C400216009480021A360626009F0FFFD002316
:1046D400236070BD64100020DE8116F0299B72BD3A
:0C46E4007ABE59D355420000A0860100A8
:1046F0000B00F0B50F2700260E33023902003A40B6
:10470000D5B22C0000093034092A00DD07341C70B2
:0A4710005E70023B9942F1D1F0BD4A
:04471A001E207047A6
:02471E007047E2
:1047200013B50400684609F063F821000098FFF70C
:10473000DFFF210001981031FFF7DAFF202016BDBE
:1047400010B5192001F0B0FE0400044809F052FF32
:10475000030001200021A0409847C04655420000B8
:104760009A2370B55B00C35C05001400002B1CD1BC
:104770000368DB699847F0210C4B09012140C918F7
:104780004B1E9941F0232340303B5A4253410F22A4
:104790000731144001330D3A012C02D0023C624231
:1047A0006241A869006804F0FAFB70BD00FDFFFFDC
:1047B0009A2310B55B00C35C0400002B05D1A369EC
:0C47C000186804F01CFC0028F9D010BDA3
:1047CC009A2370B55B00C55C0400002D14D183697D
:1047DC00002B0CD01868002809D00368DB689847B8
:1047EC00A36904211D60A06907F020FFA5610023C7
:0A47FC00FC34E3622363636370BDC5
:104806009A23F7B55B00C35C0400002B2AD18025F0
:10481600FF276D00A369186804F0D2FB002821D099
:1048260007F037FAA369012218686B46DE1D036894
:1048360031005B6998472300FC335A6BAA420ED0BD
:104846005A6BAA420BD02200D96A307828325054CB
:10485600DA6A01323A40DA625A6B01325A6307F079
:064866002EFAD7E7F7BDB2
:10486C009A2210B552000300805C002806D001206B
:10487C0001F03AFE054801F05EFA10BD9B69002B71
:10488C00FBD01868431E9841C0B2F6E730180020E0
:10489C0070B504000D0001F04EFA030000208342B5
:1048AC0004D0236829001B6C2000984770BD08B405
:1048BC00024B9C46024BC01A08BC60479D48001036
:0448CC0040010000A7
:1048D00037B56B46DC1D9A2321705B00C35C050075
:1048E000002B04D0C9B20A48FFF7D8FF3EBDAB6920
:1048F000186804F084FB0028F9D0AB69012218681D
:10490000210003681B6998470130431E9841EDE779
:04491000301800203B
:10491400F7B5060001911700002401F010FAA04237
:104924000DD0A7420BD93D1B402D00D94025019B3A
:104934002A001919300000F035FF6419F1E720004E
:10494400FEBD08B4024B9C46024BC01A08BC60472B
:084954001549001040010000AC
:10495C009A2370B55B00C35C05000E001400002B9D
:10496C0005D00F48FFF7D0FF0400200070BDAB69E5
:10497C00186804F03EFB0028F9D0AB6901211B68D4
:10498C0018005B6F74301B6B9847AB69220018687A
:10499C00310003681B699847431CE6D10024E4E707
:0449AC00301800209F
:1049B000F0B5C3B0050001F0AFF9932380229B004E
:1049C000E918CB6852000400D31A984201DDCC6884
:1049D000141B01AB220002A92800A82600F0E1FF69
:1049E0000021019802AB241A76001C19932380221F
:1049F0009B00EB18DF685200974211D081420FD024
:104A0000DF6897420AD05A68675CAA1897555A68B7
:104A10000132D2B25A60DA680132DA600131E5E778
:044A200043B0F0BDF2
:104A240070B5040000F0A0FB2000FFF7BFFF932344
:104A34009B00E318DD68200000F09DFB280070BD9A
:104A440008B4034B9C46034BC01A08BC6047C046DD
:084A5400254A0010400100009A
:104A5C009A2310B55B00C35C0400002B05D00648FC
:104A6C00FFF7DAFF0400200010BDFC3407F00EF94C
:0C4A7C00646B07F021F9F6E73018002009
:104A880070B5040000F06EFB2000FFF78DFF932344
:104A98009B00E318DA68002A09D0A8229B68520014
:104AA800E3189D5C200000F064FB280070BD012520
:104AB8006D42F7E708B4034B9C46034BC01A08BC89
:0C4AC8006047C046894A00104001000011
:104AD4009A2310B55B00C35C0400002B05D00B487F
:104AE400FFF7D0FF0400200010BD07F0D3F8230027
:104AF400FC335A6B002A05D01B6B2834E45C07F0A6
:104B0400DFF8F0E701246442F9E7C04630180020DA
:104B140070B5040000F028FB2000FFF747FF932343
:104B24009B00E318DA68002A10D0A8219A6849008B
:104B3400A218555C9A680132D2B29A60DA68013AD6
:104B4400DA60200000F017FB280070BD01256D42DB
:104B5400F7E708B4024B9C46024BC01A08BC6047F6
:084B6400154B00104001000098
:104B6C009A2310B55B00C35C0400002B05D00E48E3
:104B7C00FFF7CAFF0400200010BD07F087F82300E0
:104B8C00FC335A6B002A0CD01A6B2834A45C1A6BB9
:104B9C000132D2B21A635A6B013A5A6307F08CF89D
:0C4BAC00E9E701246442F9E7301800201A
:104BB800802210B50400520000210BF015FD2300DF
:0E4BC8000022FC335A6020009A60DA6010BDB3
:104BD60010B542680368086854100019D20701D559
:084BE6000268D358984710BD86
:0C4BEE0010B501000430FFF7EFFF10BD10
:104BFC0010B5024BC3601CC91CC010BD94600110E1
:104C0C0010B586B00400684603910092436004AB73
:104C1C0006C806C3200003A9FFF7EAFF200006B070
:024C2C0010BDB9
:0C4C2E0013B50400FFF7EBFF200016BDDB
:104C3C009A2370B55B00C35C86B004000D00002B9A
:104C4C0036D18669002E04D1042007F0BFFCA06188
:104C5C000660A369186800282CD1783007F0B6FCE0
:104C6C0006002223E25E2023E15E2B0004F0B0FC60
:104C7C00A3691E602423E25E531C06D0A069262182
:104C8C00635E0068032104F0B1FCA3691D68002D6C
:104C9C000ED00026094A3300210002A8FFF7C1FFFD
:104CAC002800320002A904F00FFA02A8FFF71DFA3F
:104CBC0006B070BD290004F05BF9DBE70748001073
:084CCC0010B5FFF78EFF10BDCB
:084CD40010B5FFF7F9FF10BD58
:104CDC00F7B51A4B1A4DFA260024083300932B60B3
:104CEC002023B600AE606C6016486B61AC61EC6161
:104CFC00FFF75CFF9A22012752002000AF5401F00D
:104D0C00CDFB0190380001F0C9FB20230E4D00991A
:104D1C006B616B469B88AE602B84012368845B427D
:104D2C006C600A482960AC61EC61AB84EB84FFF7E2
:104D3C003DFF9A225200AC54F7BDC046A060011052
:104D4C00201C0020481C0020E81A0020101B00200A
:044D5C00002070477C
:024D600070479A
:024D6200704798
:104D640010B5054BC458002C05D023682000DB6A1D
:0C4D74009847A468F7E710BD8C0500000C
:104D800070B50D00054BC458002C06D023682000D8
:104D9000DB6829009847A468F6E770BD8C05000021
:084DA00000487047706101102A
:104DA80010B50400044B036005F02AFF200006F04C
:0C4DB8005DF8200010BDC046F060011046
:104DC40010B50400FFF7EEFFB2212000C90007F080
:064DD40031FC200010BDBF
:104DDC00F0B50F4B0500C458002385B0019102AA11
:104DEC00D61C002C12D0236801991F69320003AB2A
:104DFC002000B84731780300042905D0039A280015
:104E0C0005F0A2F905B0F0BDA468E8E73178F5E744
:044E1C008C05000001
:104E200070B50E0005000021002A0CD10A4BC458B1
:104E3000002C0ED0236800225B69310020009847C7
:104E4000002804D00121280004F050FF70BDA468A0
:0C4E5000EEE72100F7E7C0468C050000EB
:104E5C0070B50E0005000021074BC458002C07D07C
:104E6C002368310020009B699847A4680100F5E78E
:0C4E7C00280005F03FF870BD8C05000018
:104E8800F8B505000E001700084BC458002C07D0D1
:104E980023682000DB693A0031009847A468F5E7E9
:104EA8002800012105F094F8F8BDC0468C050000E3
:104EB800F0B5002187B0040005F0C0FA6B46002267
:104EC800DA80238901A9A588E28889260B731B0A41
:104ED8004B730F4BEF27CB81042376000E80113ED6
:104EE800FF3ECE704E710D728A72FF330A34013E56
:104EF8002D0A120AC871CA720F718E714D720B8217
:104F0800122220000BF0DEFA200007B0F0BDC046E8
:044F18000102000092
:104F1C00F8B506000C000500002730000BF056FE1B
:104F2C00AB1B984205D92B7867702370013502347E
:084F3C00F3E74000C0B2F8BD2C
:104F440070B504000C4BC558002D07D02B68280001
:104F54005B6A9847002802D1AD68F5E72800A925C7
:104F6400064BED006353064BE118FFF7D5FF635D75
:104F7400C0186055601970BD8C0500000203000064
:044F84004A050000DA
:104F880070B5A125064BED004353064B0400C1182C
:104F98000548FFF7BFFF635DC0186055601970BD15
:0C4FA800020300000A050000D4600110A4
:104FB40070B59925064BED004353064B0400C01809
:104FC400FFF7ACFB635DC0186055601970BDC04647
:084FD40002030000CA04000002
:104FDC000023F0B587B003A98B71B123DB00C35C50
:104FEC0005000B7101234B71BF33CB713A330B723C
:104FFC00CE2309249B00154AC718039238000922B6
:10500C000BF05EFA124BEE58002E17D033680021CD
:10501C009B6830009847C37882781B021343093B86
:10502C000193CE2301009B00E01828180931019A46
:10503C000BF046FA019BB668E418E5E73800054B1F
:10504C00EC54054B2412EC5407B0F0BD0902FFFFE1
:0C505C008C0500003A0300003B0300003C
:1050680073B504000D00160008F0FAF880235B0001
:10507800010000932A003300200005F0A3FE024B34
:0C5088002000236076BDC046F0600110DF
:1050940010B50E4A04008358002B12D18150B1235D
:1050A400DB00E25C48790A71E25C1218E2540B6896
:1050B40008009B6A9847238918182081012010BD95
:1050C40013009A68002AFBD19960E8E78C05000078
:1050D4001FB5040005F0ACF90100684604F056FB66
:1050E4004021684604F0CCFB074BE458002C06D062
:1050F400236820001B6A69469847A468F6E7684657
:0C51040004F04BFB1FBDC0468C050000F2
:1051100010B50400FFF7DEFF200005F06FF910BDA9
:1051200070B50D4D2B78BFF35B8F0C4CDB0711D4A2
:10513000280007F043F800280CD0C02208492000BE
:10514000FFF792FF280007F05BF8064A06492000A7
:1051500007F020F8200070BD5C1D00203C200020DE
:0C5160008A2E000088020020A94D0010DB
:0E516C0010B5FFF7D7FF03685B6F984710BDC3
:0E517A0010B5FFF7D0FF03689B6F984710BD7C
:0E51880010B5FFF7C9FF0368DB6F984710BD35
:0851960010B504F080FC10BD0F
:08519E0010B504F092FC10BDF5
:0851A60010B504F066FC10BD19
:0251AE00704748
:0251B000704746
:0251B200704744
:0851B400436A78331878704754
:0651BC00FC30806A704720
:0451C2000120704711
:0851C80000487047D862011095
:1051D000F0B505009BB007AC4B220F00200000216A
:1051E0000BF006FA2B00FC339B6A05215A1E9341F3
:1051F00000202E795B421940731CDBB20193AB7B1C
:1052000002932B7B03936B7B0493874200D0A5E032
:105210006176534906A86183102161770B39E177E4
:105220002421471D0922F9772527627406A8053A2B
:10523000C019A274033A027006A8C71D0320494B87
:10524000F8772380BF3BFF3BA370812308AFFA7739
:1052500004275B00A380823BE37162754E3B22769C
:10526000A27706A80832121823722A3BD7776372F6
:105270000A220333A3723C4B06A8A381022312180F
:10528000D1770591073706A97F18FB7706270521F7
:1052900009A8C77711A801702D2006A9401824215C
:1052A000E672A373E674A375E37501702E2006A958
:1052B000401807702F204018694606700E7912A812
:1052C00006703126072006A9761830703226761827
:1052D00005213170332606A9761869460F7A06A98A
:1052E0003770224E10272686372676183770092702
:1052F00014AE377039260427761837703A26761898
:1053000069460F7906A93770194E1D352687412643
:10531000761830703B30401805210170432106A8F3
:10532000091868464426007B0870124906A88019AF
:10533000018011492800D1874A2206A952186946DE
:10534000097C11704B2206A952181370402219AB28
:105350001A7021000B320BF0B9F828001BB0F0BD19
:1053600005240000090200000202000003400000C2
:0C537000020A00000240000007050000D7
:10537C0010B504000A4B08330360FFF7CBFE05F0B1
:10538C003DFC2000D03004F010FB20007C3004F0F9
:10539C000CFB2000703004F008FB200010BDC04650
:0453AC0090620110FA
:1053B00010B50400FFF7E2FF94212000490007F038
:0653C0003BF9200010BDC6
:0853C60010B5FFF7DEFE10BD7B
:1053D00010B50400024B036004F09EF9200010BDDC
:0453E000B86101109F
:1053E40010B50400FFF7F2FF2000282107F022F98E
:0453F400200010BDC8
:1053F80010B50400024B036004F08AF9200010BDC8
:0454080088610110A6
:10540C0010B50400FFF7F2FF2000342107F00EF96D
:04541C00200010BD9F
:1054200010B50400024B036004F076F9200010BDB3
:04543000A061011066
:1054340010B50400FFF7F2FF2000382107F0FAF856
:04544400200010BD77
:1054480070B50D000400072217490F300BF03AF829
:1054580040220221280004F003FA4022207302218E
:10546800280004F004FA402260730321280004F0A5
:10547800F7F9A073280004F08FF9002804D1AF22AF
:105488000A490B4806F056FB220021000023783217
:1054980085311165536513701373D9345032137401
:1054A8005465936570BDC046D461011074620110E3
:0454B8007F620110FE
:1054BC00F0B504000E0087B01500FFF75FFEF28810
:1054CC0023799A4236D1002D34D173780593012B70
:1054DC002DD1F378202B26D13789072F23D1230008
:1054EC000F33039307333A001900039804930AF01F
:1054FC00C1FF059D002816D03A00049903980AF0C4
:10550C00DFFF217CE07B09020918607CE77C00044A
:10551C000918A07C0097000609182068237D476BAA
:10552C00627D2000B847F378212B00D1012528009B
:08553C0007B0F0BD0025FAE7FD
:1055440070B50400FFF71EFEFFF7E8FD217B05F0B0
:10555400D9F923002200C833853225001A602000BF
:1055640000234732843513607C302B7004F0D9F962
:105574002B78002B03D123682000DB6B984770BD88
:1055840070B504002500FC35FFF7FCFD6E6A002EA3
:1055940005D0DE220E49FF320E4806F0CDFA230074
:1055A400D9332B62FFF7BAFD617B05F001F968621C
:1055B40025002000D8352E70D03004F0B2F92B78B5
:1055C400002B03D1236820009B6B984770BDC04615
:0855D40074620110E061011096
:1055DC00022370B543710023040083600C4B15004B
:1055EC0008330360703004F08BF920007C3004F039
:1055FC0087F92000D03004F083F92300FC339D623E
:10560C00FFF788FD2100FFF73FFD200070BDC0466D
:04561C009062011087
:1056200070B504000D00FFF7AFFD230078331D7047
:10563000002D42D1260084363378002B05D0FFF7A9
:105640006FFD217B04F01AFF357023002200250036
:105650000026C83385327C3528001A605E6004F06D
:1056600062F9280004F058F9B04205D1A222154988
:105670001548520006F062FA2500D8352B78002B29
:1056800005D0FFF74DFD217B04F0F8FE2E702300BE
:105690002200FC33D93225001A620022D0352800BE
:1056A0005A6204F040F9280004F036F9002804D1C9
:1056B000A722044952000548DCE72000703004F0BE
:1056C00032F970BD74620110EE610110FF610110CA
:1056D00010B50400FFF758FD00212000FFF7A0FFE0
:0256E00010BDFB
:1056E20070B50D000400FFF74EFD042D03D000211C
:0856F2002000FFF794FF70BDDA
:1056FA00F8B5040016000D001F00FFF740FD042353
:10570A003370EA88237900209A4210D16A78012AF4
:10571A000DD1EB78212B06D0222B09D0202B19D1C1
:10572A003070163401E032700F3407203C60F8BD47
:10573A00A988114000D011002000FFF76CFF012258
:10574A00AB8800201340E366AB8892181340A36627
:0A575A003270ECE703233370E9E737
:1057640010B504008AB0FFF7FFFC684603F0C0FFE1
:1057740020000A4B694670300093099404F0E8F85D
:105784002000FFF7F8FC064B00211A68684603F076
:1057940073FF6846FFF71AFE0AB010BDB861011026
:0457A400DC610110B3
:1057A80070B504000E008EB01500FFF7DBFC01A8F1
:1057B80003F09CFF20000B9600260D4B01A90C95C9
:1057C8007C300DAD01930A942E7004F0BFF82000D0
:1057D800FFF7CFFC074B31001A6801A803F04AFF16
:1057E8002C7801A8FFF704FE20000EB070BDC0465B
:0857F80088610110DC61011061
:1058000070B5040025008435FFF7BEFC2B78002B13
:1058100010D12600CC363368002B0BD0FFF780FC6C
:105820002200217B8532336805F006F8002801D07C
:0658300001232B7070BD86
:10583600F0B585B01F000AAB1B78040003930291F4
:105846000192FFF790FC00233B60230078331B781E
:10585600002B21D0230084331B78002B1CD126007B
:105866004025CC363368ED1A019B9D4200D91D00B8
:10587600019B002B06D02300C83318682A00029922
:105886000AF021FE33685B193360039B3D60002BF1
:1058960002D02000FFF7B1FF2000FFF76BFC05B038
:0258A600F0BD53
:1058A800F0B50400406A85B0030078331D780126FE
:1058B800002D05D1303425703500280005B0F0BD25
:1058C8000027009603ABE26AA16A0397FFF7AFFFD0
:1058D800039AE36AA16A9B1A8A18E362A262BB422E
:1058E80002D130342670E8E7606AFFF785FF3D0093
:0258F800E3E7E4
:1058FC00F0B51C0093B0019205000F00FFF730FCCF
:10590C0063426341DBB20093002C00D103AC002650
:10591C0004A8266003F0E8FE6A46109428003D2493
:10592C000F4B12780493019B04A90F9311AB1A70BF
:10593C0002ABE418D03026700D950E9704F004F8E5
:10594C002800FFF714FC074B31001A6804A803F079
:10595C008FFE247804A8FFF75DFD200013B0F0BD86
